{
  "contractName": "AssetTracker",
  "abi": [
    {
      "constant": true,
      "inputs": [],
      "name": "totalLandsCounter",
      "outputs": [
        {
          "name": "",
          "type": "uint8"
        }
      ],
      "payable": false,
      "stateMutability": "view",
      "type": "function"
    },
    {
      "constant": true,
      "inputs": [
        {
          "name": "",
          "type": "address"
        },
        {
          "name": "",
          "type": "uint256"
        }
      ],
      "name": "ownedLands",
      "outputs": [
        {
          "name": "name",
          "type": "string"
        },
        {
          "name": "description",
          "type": "string"
        },
        {
          "name": "initialized",
          "type": "bool"
        },
        {
          "name": "manufacturer",
          "type": "string"
        },
        {
          "name": "ownerAddress",
          "type": "address"
        },
        {
          "name": "cost",
          "type": "uint256"
        },
        {
          "name": "assetId",
          "type": "uint256"
        }
      ],
      "payable": false,
      "stateMutability": "view",
      "type": "function"
    },
    {
      "anonymous": false,
      "inputs": [
        {
          "indexed": false,
          "name": "account",
          "type": "address"
        },
        {
          "indexed": false,
          "name": "uuid",
          "type": "uint256"
        },
        {
          "indexed": false,
          "name": "manufacturer",
          "type": "string"
        }
      ],
      "name": "AssetCreate",
      "type": "event"
    },
    {
      "anonymous": false,
      "inputs": [
        {
          "indexed": false,
          "name": "account",
          "type": "address"
        },
        {
          "indexed": false,
          "name": "uuid",
          "type": "uint256"
        },
        {
          "indexed": false,
          "name": "message",
          "type": "string"
        }
      ],
      "name": "RejectCreate",
      "type": "event"
    },
    {
      "anonymous": false,
      "inputs": [
        {
          "indexed": false,
          "name": "from",
          "type": "address"
        },
        {
          "indexed": false,
          "name": "to",
          "type": "address"
        },
        {
          "indexed": false,
          "name": "uuid",
          "type": "uint256"
        }
      ],
      "name": "AssetTransfer",
      "type": "event"
    },
    {
      "anonymous": false,
      "inputs": [
        {
          "indexed": false,
          "name": "from",
          "type": "address"
        },
        {
          "indexed": false,
          "name": "to",
          "type": "address"
        },
        {
          "indexed": false,
          "name": "uuid",
          "type": "uint256"
        },
        {
          "indexed": false,
          "name": "message",
          "type": "string"
        }
      ],
      "name": "RejectTransfer",
      "type": "event"
    },
    {
      "anonymous": false,
      "inputs": [
        {
          "indexed": false,
          "name": "id",
          "type": "uint256"
        }
      ],
      "name": "AssetDelete",
      "type": "event"
    },
    {
      "constant": false,
      "inputs": [
        {
          "name": "name",
          "type": "string"
        },
        {
          "name": "description",
          "type": "string"
        },
        {
          "name": "manufacturer",
          "type": "string"
        },
        {
          "name": "cost",
          "type": "uint256"
        }
      ],
      "name": "createAsset",
      "outputs": [],
      "payable": false,
      "stateMutability": "nonpayable",
      "type": "function"
    },
    {
      "constant": false,
      "inputs": [
        {
          "name": "id",
          "type": "uint256"
        }
      ],
      "name": "deleteAsset",
      "outputs": [
        {
          "name": "success",
          "type": "bool"
        }
      ],
      "payable": false,
      "stateMutability": "nonpayable",
      "type": "function"
    },
    {
      "constant": false,
      "inputs": [
        {
          "name": "to",
          "type": "address"
        },
        {
          "name": "uuid",
          "type": "uint256"
        }
      ],
      "name": "transferAsset",
      "outputs": [],
      "payable": false,
      "stateMutability": "nonpayable",
      "type": "function"
    },
    {
      "constant": true,
      "inputs": [
        {
          "name": "uuid",
          "type": "uint256"
        }
      ],
      "name": "getAssetByUUID",
      "outputs": [
        {
          "name": "",
          "type": "string"
        },
        {
          "name": "",
          "type": "string"
        },
        {
          "name": "",
          "type": "string"
        }
      ],
      "payable": false,
      "stateMutability": "view",
      "type": "function"
    },
    {
      "constant": true,
      "inputs": [
        {
          "name": "owner",
          "type": "address"
        },
        {
          "name": "uuid",
          "type": "uint256"
        }
      ],
      "name": "isOwnerOf",
      "outputs": [
        {
          "name": "",
          "type": "bool"
        }
      ],
      "payable": false,
      "stateMutability": "view",
      "type": "function"
    },
    {
      "constant": true,
      "inputs": [
        {
          "name": "_landHolder",
          "type": "address"
        },
        {
          "name": "_index",
          "type": "uint256"
        }
      ],
      "name": "getAsset",
      "outputs": [
        {
          "name": "",
          "type": "string"
        },
        {
          "name": "",
          "type": "string"
        },
        {
          "name": "",
          "type": "uint256"
        },
        {
          "name": "",
          "type": "string"
        },
        {
          "name": "",
          "type": "address"
        },
        {
          "name": "",
          "type": "uint256"
        }
      ],
      "payable": false,
      "stateMutability": "view",
      "type": "function"
    },
    {
      "constant": true,
      "inputs": [
        {
          "name": "_landHolder",
          "type": "address"
        }
      ],
      "name": "getNoOfAssets",
      "outputs": [
        {
          "name": "",
          "type": "uint256"
        }
      ],
      "payable": false,
      "stateMutability": "view",
      "type": "function"
    },
    {
      "constant": true,
      "inputs": [],
      "name": "getNoOfAssetsTotal",
      "outputs": [
        {
          "name": "",
          "type": "uint8"
        }
      ],
      "payable": false,
      "stateMutability": "view",
      "type": "function"
    }
  ],
  "bytecode": "0x608060405260008060006101000a81548160ff021916908360ff16021790555034801561002b57600080fd5b50611ea88061003b6000396000f3006080604052600436106100a4576000357c0100000000000000000000000000000000000000000000000000000000900463ffffffff1680630d167754146100a9578063369d8138146101005780635c921eb9146101ff5780636928f99c1461024c578063759ab37b146103ca5780637eb79b53146103fb57806382f557ae14610440578063b6f8499114610471578063c5b8f7721461065b578063dfd01ff3146106c0575b600080fd5b3480156100b557600080fd5b506100ea600480360381019080803573ffffffffffffffffffffffffffffffffffffffff16906020019092919050505061089f565b6040518082815260200191505060405180910390f35b34801561010c57600080fd5b506101fd600480360381019080803590602001908201803590602001908080601f0160208091040260200160405190810160405280939291908181526020018383808284378201915050505050509192919290803590602001908201803590602001908080601f0160208091040260200160405190810160405280939291908181526020018383808284378201915050505050509192919290803590602001908201803590602001908080601f0160208091040260200160405190810160405280939291908181526020018383808284378201915050505050509192919290803590602001909291905050506108eb565b005b34801561020b57600080fd5b5061024a600480360381019080803573ffffffffffffffffffffffffffffffffffffffff16906020019092919080359060200190929190505050610ca8565b005b34801561025857600080fd5b5061027760048036038101908080359060200190929190505050611066565b60405180806020018060200180602001848103845287818151815260200191508051906020019080838360005b838110156102bf5780820151818401526020810190506102a4565b50505050905090810190601f1680156102ec5780820380516001836020036101000a031916815260200191505b50848103835286818151815260200191508051906020019080838360005b8381101561032557808201518184015260208101905061030a565b50505050905090810190601f1680156103525780820380516001836020036101000a031916815260200191505b50848103825285818151815260200191508051906020019080838360005b8381101561038b578082015181840152602081019050610370565b50505050905090810190601f1680156103b85780820380516001836020036101000a031916815260200191505b50965050505050505060405180910390f35b3480156103d657600080fd5b506103df61128e565b604051808260ff1660ff16815260200191505060405180910390f35b34801561040757600080fd5b50610426600480360381019080803590602001909291905050506112a4565b604051808215151515815260200191505060405180910390f35b34801561044c57600080fd5b5061045561158f565b604051808260ff1660ff16815260200191505060405180910390f35b34801561047d57600080fd5b506104bc600480360381019080803573ffffffffffffffffffffffffffffffffffffffff169060200190929190803590602001909291905050506115a1565b60405180806020018060200188151515158152602001806020018773ffffffffffffffffffffffffffffffffffffffff1673ffffffffffffffffffffffffffffffffffffffff16815260200186815260200185815260200184810384528b818151815260200191508051906020019080838360005b8381101561054c578082015181840152602081019050610531565b50505050905090810190601f1680156105795780820380516001836020036101000a031916815260200191505b5084810383528a818151815260200191508051906020019080838360005b838110156105b2578082015181840152602081019050610597565b50505050905090810190601f1680156105df5780820380516001836020036101000a031916815260200191505b50848103825288818151815260200191508051906020019080838360005b838110156106185780820151818401526020810190506105fd565b50505050905090810190601f1680156106455780820380516001836020036101000a031916815260200191505b509a505050505050505050505060405180910390f35b34801561066757600080fd5b506106a6600480360381019080803573ffffffffffffffffffffffffffffffffffffffff169060200190929190803590602001909291905050506117f4565b604051808215151515815260200191505060405180910390f35b3480156106cc57600080fd5b5061070b600480360381019080803573ffffffffffffffffffffffffffffffffffffffff1690602001909291908035906020019092919050505061186d565b604051808060200180602001878152602001806020018673ffffffffffffffffffffffffffffffffffffffff1673ffffffffffffffffffffffffffffffffffffffff16815260200185815260200184810384528a818151815260200191508051906020019080838360005b83811015610791578082015181840152602081019050610776565b50505050905090810190601f1680156107be5780820380516001836020036101000a031916815260200191505b50848103835289818151815260200191508051906020019080838360005b838110156107f75780820151818401526020810190506107dc565b50505050905090810190601f1680156108245780820380516001836020036101000a031916815260200191505b50848103825287818151815260200191508051906020019080838360005b8381101561085d578082015181840152602081019050610842565b50505050905090810190601f16801561088a5780820380516001836020036101000a031916815260200191505b50995050505050505050505060405180910390f35b6000600360008373ffffffffffffffffffffffffffffffffffffffff1673ffffffffffffffffffffffffffffffffffffffff168152602001908152602001600020805490509050919050565b6108f3611cb2565b60e0604051908101604052808681526020018581526020016001151581526020018481526020013373ffffffffffffffffffffffffffffffffffffffff1681526020018381526020016000809054906101000a900460ff1660ff168152509050600360003373ffffffffffffffffffffffffffffffffffffffff1673ffffffffffffffffffffffffffffffffffffffff168152602001908152602001600020819080600181540180825580915050906001820390600052602060002090600702016000909192909190915060008201518160000190805190602001906109da929190611d08565b5060208201518160010190805190602001906109f7929190611d08565b5060408201518160020160006101000a81548160ff0219169083151502179055506060820151816003019080519060200190610a34929190611d08565b5060808201518160040160006101000a81548173ffffffffffffffffffffffffffffffffffffffff021916908373ffffffffffffffffffffffffffffffffffffffff16021790555060a0820151816005015560c0820151816006015550505080600160008060009054906101000a900460ff1660ff1681526020019081526020016000206000820151816000019080519060200190610ad4929190611d08565b506020820151816001019080519060200190610af1929190611d08565b5060408201518160020160006101000a81548160ff0219169083151502179055506060820151816003019080519060200190610b2e929190611d08565b5060808201518160040160006101000a81548173ffffffffffffffffffffffffffffffffffffffff021916908373ffffffffffffffffffffffffffffffffffffffff16021790555060a0820151816005015560c082015181600601559050507f4b26fe7b1d249e481ff7e59a809e125494d7533b9604149e804679738ecf4a8d336000809054906101000a900460ff1685604051808473ffffffffffffffffffffffffffffffffffffffff1673ffffffffffffffffffffffffffffffffffffffff1681526020018360ff16815260200180602001828103825283818151815260200191508051906020019080838360005b83811015610c3a578082015181840152602081019050610c1f565b50505050905090810190601f168015610c675780820380516001836020036101000a031916815260200191505b5094505050505060405180910390a160016000809054906101000a900460ff16016000806101000a81548160ff021916908360ff1602179055505050505050565b6001600082815260200190815260200160002060020160009054906101000a900460ff161515610daf577faaeb050ccadb461033f405ddfe0eaef0114645534413c100e9db6aa49d3a4e7c338383604051808473ffffffffffffffffffffffffffffffffffffffff1673ffffffffffffffffffffffffffffffffffffffff1681526020018373ffffffffffffffffffffffffffffffffffffffff1673ffffffffffffffffffffffffffffffffffffffff168152602001828152602001806020018281038252601e8152602001807f4e6f20617373657420776974682074686973205555494420657869737473000081525060200194505050505060405180910390a1611062565b600260003373ffffffffffffffffffffffffffffffffffffffff1673ffffffffffffffffffffffffffffffffffffffff168152602001908152602001600020600082815260200190815260200160002060009054906101000a900460ff161515610ef0577faaeb050ccadb461033f405ddfe0eaef0114645534413c100e9db6aa49d3a4e7c338383604051808473ffffffffffffffffffffffffffffffffffffffff1673ffffffffffffffffffffffffffffffffffffffff1681526020018373ffffffffffffffffffffffffffffffffffffffff1673ffffffffffffffffffffffffffffffffffffffff168152602001828152602001806020018281038252601f8152602001807f53656e64657220646f6573206e6f74206f776e20746869732061737365742e0081525060200194505050505060405180910390a1611062565b6000600260003373ffffffffffffffffffffffffffffffffffffffff1673ffffffffffffffffffffffffffffffffffffffff168152602001908152602001600020600083815260200190815260200160002060006101000a81548160ff0219169083151502179055506001600260008473ffffffffffffffffffffffffffffffffffffffff1673ffffffffffffffffffffffffffffffffffffffff168152602001908152602001600020600083815260200190815260200160002060006101000a81548160ff0219169083151502179055507f49419b7bcd06fd32be5c2c39a4521b14bcf3650473f07dcbbbd86343c9eb808f338383604051808473ffffffffffffffffffffffffffffffffffffffff1673ffffffffffffffffffffffffffffffffffffffff1681526020018373ffffffffffffffffffffffffffffffffffffffff1673ffffffffffffffffffffffffffffffffffffffff168152602001828152602001935050505060405180910390a15b5050565b6060806060600160008581526020019081526020016000206000016001600086815260200190815260200160002060010160016000878152602001908152602001600020600301828054600181600116156101000203166002900480601f0160208091040260200160405190810160405280929190818152602001828054600181600116156101000203166002900480156111425780601f1061111757610100808354040283529160200191611142565b820191906000526020600020905b81548152906001019060200180831161112557829003601f168201915b50505050509250818054600181600116156101000203166002900480601f0160208091040260200160405190810160405280929190818152602001828054600181600116156101000203166002900480156111de5780601f106111b3576101008083540402835291602001916111de565b820191906000526020600020905b8154815290600101906020018083116111c157829003601f168201915b50505050509150808054600181600116156101000203166002900480601f01602080910402602001604051908101604052809291908181526020018280546001816001161561010002031660029004801561127a5780601f1061124f5761010080835404028352916020019161127a565b820191906000526020600020905b81548152906001019060200180831161125d57829003601f168201915b505050505090509250925092509193909250565b60008060009054906101000a900460ff16905090565b60008060008060009054906101000a900460ff1660ff161115156112c757600080fd5b600090505b6000809054906101000a900460ff1660ff16811015611584578260016000838152602001908152602001600020600601541415611577576001600060016000809054906101000a900460ff160360ff1681526020019081526020016000206001600083815260200190815260200160002060008201816000019080546001816001161561010002031660029004611364929190611d88565b506001820181600101908054600181600116156101000203166002900461138c929190611d88565b506002820160009054906101000a900460ff168160020160006101000a81548160ff021916908315150217905550600382018160030190805460018160011615610100020316600290046113e1929190611d88565b506004820160009054906101000a900473ffffffffffffffffffffffffffffffffffffffff168160040160006101000a81548173ffffffffffffffffffffffffffffffffffffffff021916908373ffffffffffffffffffffffffffffffffffffffff16021790555060058201548160050155600682015481600601559050506001600060016000809054906101000a900460ff160360ff168152602001908152602001600020600080820160006114989190611e0f565b6001820160006114a89190611e0f565b6002820160006101000a81549060ff02191690556003820160006114cc9190611e0f565b6004820160006101000a81549073ffffffffffffffffffffffffffffffffffffffff021916905560058201600090556006820160009055505060008081819054906101000a900460ff16809291906001900391906101000a81548160ff021916908360ff160217905550507f0ea7e92c3472acca4d5f147aa079ae95c6619a45b264395e7bd559f019bc899c836040518082815260200191505060405180910390a160019150611589565b80806001019150506112cc565b600091505b50919050565b6000809054906101000a900460ff1681565b6003602052816000526040600020818154811015156115bc57fe5b906000526020600020906007020160009150915050806000018054600181600116156101000203166002900480601f0160208091040260200160405190810160405280929190818152602001828054600181600116156101000203166002900480156116695780601f1061163e57610100808354040283529160200191611669565b820191906000526020600020905b81548152906001019060200180831161164c57829003601f168201915b505050505090806001018054600181600116156101000203166002900480601f0160208091040260200160405190810160405280929190818152602001828054600181600116156101000203166002900480156117075780601f106116dc57610100808354040283529160200191611707565b820191906000526020600020905b8154815290600101906020018083116116ea57829003601f168201915b5050505050908060020160009054906101000a900460ff1690806003018054600181600116156101000203166002900480601f0160208091040260200160405190810160405280929190818152602001828054600181600116156101000203166002900480156117b85780601f1061178d576101008083540402835291602001916117b8565b820191906000526020600020905b81548152906001019060200180831161179b57829003601f168201915b5050505050908060040160009054906101000a900473ffffffffffffffffffffffffffffffffffffffff16908060050154908060060154905087565b6000600260008473ffffffffffffffffffffffffffffffffffffffff1673ffffffffffffffffffffffffffffffffffffffff168152602001908152602001600020600083815260200190815260200160002060009054906101000a900460ff16156118625760019050611867565b600090505b92915050565b60608060006060600080600360008973ffffffffffffffffffffffffffffffffffffffff1673ffffffffffffffffffffffffffffffffffffffff168152602001908152602001600020878154811015156118c357fe5b9060005260206000209060070201600001600360008a73ffffffffffffffffffffffffffffffffffffffff1673ffffffffffffffffffffffffffffffffffffffff1681526020019081526020016000208881548110151561192057fe5b9060005260206000209060070201600101600360008b73ffffffffffffffffffffffffffffffffffffffff1673ffffffffffffffffffffffffffffffffffffffff1681526020019081526020016000208981548110151561197d57fe5b906000526020600020906007020160050154600360008c73ffffffffffffffffffffffffffffffffffffffff1673ffffffffffffffffffffffffffffffffffffffff1681526020019081526020016000208a8154811015156119db57fe5b9060005260206000209060070201600301600360008d73ffffffffffffffffffffffffffffffffffffffff1673ffffffffffffffffffffffffffffffffffffffff1681526020019081526020016000208b815481101515611a3857fe5b906000526020600020906007020160040160009054906101000a900473ffffffffffffffffffffffffffffffffffffffff16600360008e73ffffffffffffffffffffffffffffffffffffffff1673ffffffffffffffffffffffffffffffffffffffff1681526020019081526020016000208c815481101515611ab657fe5b906000526020600020906007020160060154858054600181600116156101000203166002900480601f016020809104026020016040519081016040528092919081815260200182805460018160011615610100020316600290048015611b5d5780601f10611b3257610100808354040283529160200191611b5d565b820191906000526020600020905b815481529060010190602001808311611b4057829003601f168201915b50505050509550848054600181600116156101000203166002900480601f016020809104026020016040519081016040528092919081815260200182805460018160011615610100020316600290048015611bf95780601f10611bce57610100808354040283529160200191611bf9565b820191906000526020600020905b815481529060010190602001808311611bdc57829003601f168201915b50505050509450828054600181600116156101000203166002900480601f016020809104026020016040519081016040528092919081815260200182805460018160011615610100020316600290048015611c955780601f10611c6a57610100808354040283529160200191611c95565b820191906000526020600020905b815481529060010190602001808311611c7857829003601f168201915b505050505092509550955095509550955095509295509295509295565b60e060405190810160405280606081526020016060815260200160001515815260200160608152602001600073ffffffffffffffffffffffffffffffffffffffff16815260200160008152602001600081525090565b828054600181600116156101000203166002900490600052602060002090601f016020900481019282601f10611d4957805160ff1916838001178555611d77565b82800160010185558215611d77579182015b82811115611d76578251825591602001919060010190611d5b565b5b509050611d849190611e57565b5090565b828054600181600116156101000203166002900490600052602060002090601f016020900481019282601f10611dc15780548555611dfe565b82800160010185558215611dfe57600052602060002091601f016020900482015b82811115611dfd578254825591600101919060010190611de2565b5b509050611e0b9190611e57565b5090565b50805460018160011615610100020316600290046000825580601f10611e355750611e54565b601f016020900490600052602060002090810190611e539190611e57565b5b50565b611e7991905b80821115611e75576000816000905550600101611e5d565b5090565b905600a165627a7a723058200f48f0a91bb77c2113eba5a7dfea70f5ceca78bb789f950fb18be85b944f94dd0029",
  "source": "//a basic asset tracking functionality in the blockchain.\r\n//from: https://dzone.com/articles/implementing-a-simple-smart-contract-for-asset-tra\r\n\r\npragma solidity ^0.4.24;\r\n\r\ncontract AssetTracker {\r\n\r\n\r\n/*\r\nFor different real-world events in the supply chain, such as asset creation or asset transfer, we define counterparts in the smart contract.\r\n\r\n*/\r\n  event AssetCreate(address account, uint uuid, string manufacturer);\r\n  event RejectCreate(address account, uint uuid, string message);\r\n  event AssetTransfer(address from, address to, uint uuid);\r\n  event RejectTransfer(address from, address to, uint uuid, string message);\r\n  event AssetDelete(uint id);\r\nstruct Asset {\r\n    string name;\r\n    string description;\r\n    bool initialized;\r\n    string manufacturer;\r\n    address ownerAddress;\r\n    uint cost;\r\n    uint assetId;\r\n}\r\nuint8 public totalLandsCounter=0; //total no of lands via this contract at any time\r\nmapping(uint  => Asset) private assetStore;//da intero a un Asset\r\n//assetStore[uuid] = Asset(name, description, true, manufacturer);\r\nmapping(address => mapping(uint => bool)) private walletStore;\r\n\r\nmapping (address => Asset[]) public ownedLands;\r\n\r\n\r\n\r\n/*\r\nThe first function that we would need is the create an asset function.\r\nIt takes all the information needed to specify the asset and checks if the asset already exists.\r\nIn this case, we trigger a formerly declared event – RejectCreate().\r\nIf we have a new asset at hand, we store the data in the asset store and create the relation\r\nbetween the message sender's wallet and the asset's uuid\r\n\r\n*/\r\n\r\n//owner shall add lands via this function\r\nfunction createAsset(string name, string description, string manufacturer, uint cost) public{\r\n    // if(assetStore[uuid].initialized) {\r\n    //     emit RejectCreate(msg.sender, uuid, \"Asset with this UUID already exists.\");\r\n    //     return;\r\n    //   }\r\n\r\n\r\n      Asset memory myAsset = Asset(\r\n          {\r\n             name:name,\r\n             description:description,\r\n             initialized: true,\r\n             manufacturer:manufacturer,\r\n             ownerAddress:msg.sender,\r\n             cost:cost,\r\n             assetId: totalLandsCounter\r\n          });\r\n      ownedLands[msg.sender].push(myAsset);\r\n\r\n      assetStore[totalLandsCounter] = myAsset;\r\n      emit AssetCreate(msg.sender, totalLandsCounter, manufacturer);\r\n      totalLandsCounter = totalLandsCounter + 1;\r\n\r\n}\r\n\r\n\r\n\r\nfunction deleteAsset(uint id) public returns(bool success){\r\n       require(totalLandsCounter>0);\r\n       for(uint256 i =0; i< totalLandsCounter; i++){\r\n          if(assetStore[i].assetId == id){\r\n             assetStore[i] = assetStore[totalLandsCounter-1]; // pushing last into current arrray index which we gonna delete\r\n             delete assetStore[totalLandsCounter-1]; // now deleteing last index\r\n             totalLandsCounter--; //total count decrease\r\n             //assetStore.length--; // array length decrease\r\n             //emit event\r\n             emit AssetDelete(id);\r\n             return true;\r\n          }\r\n      }\r\n      return false;\r\n  }\r\n\r\n\r\n/*\r\nIn order to transfer the asset, we create a function that takes the address of the target wallet along with the asset's id.\r\nWe check two pre-conditions:\r\n- the asset actually exists and\r\n- the transaction initiator is actually in possession of the asset.\r\n\r\n*/\r\nfunction transferAsset(address to, uint uuid) public{\r\n    if(!assetStore[uuid].initialized) {\r\n        emit RejectTransfer(msg.sender, to, uuid, \"No asset with this UUID exists\");\r\n        return;\r\n    }\r\n    if(!walletStore[msg.sender][uuid]) {\r\n        emit RejectTransfer(msg.sender, to, uuid, \"Sender does not own this asset.\");\r\n        return;\r\n    }\r\n    walletStore[msg.sender][uuid] = false;\r\n    walletStore[to][uuid] = true;\r\n    emit AssetTransfer(msg.sender, to, uuid);\r\n}\r\n\r\n\r\n/*\r\nWe would also like to have access to the asset properties by just giving the uuid\r\n*/\r\n  function getAssetByUUID(uint uuid) public view returns (string, string, string) {\r\n      return (assetStore[uuid].name, assetStore[uuid].description, assetStore[uuid].manufacturer);\r\n  }\r\n\r\n/*\r\nFurthermore, we would like to have a simple way to prove the ownership of an asset\r\n*/\r\n\r\n\r\n  function isOwnerOf(address owner, uint uuid) public constant returns (bool) {\r\n    if(walletStore[owner][uuid]) {\r\n        return true;\r\n    }\r\n    return false;\r\n}\r\n\r\n\r\nfunction getAsset(address _landHolder, uint _index) view  public returns (string, string, uint, string, address, uint)\r\n{\r\n    // return (ownedLands[_landHolder][_index].name,\r\n    //         ownedLands[_landHolder][_index].description,\r\n    //         ownedLands[_landHolder][_index].cost,\r\n    //         ownedLands[_landHolder][_index].ownerAddress\r\n    //       );\r\n\r\n    return (ownedLands[_landHolder][_index].name,\r\n            ownedLands[_landHolder][_index].description,\r\n            ownedLands[_landHolder][_index].cost,\r\n            ownedLands[_landHolder][_index].manufacturer,\r\n            ownedLands[_landHolder][_index].ownerAddress,\r\n            ownedLands[_landHolder][_index].assetId\r\n          );\r\n}\r\n\r\nfunction getNoOfAssets(address _landHolder) public view returns (uint)\r\n{\r\n   return ownedLands[_landHolder].length;\r\n\r\n}\r\n\r\n\r\nfunction getNoOfAssetsTotal() view public returns (uint8)\r\n{\r\n  //  return ownedLands[_landHolder].length;\r\n   return totalLandsCounter;\r\n}\r\n\r\n}\r\n",
  "sourcePath": "D:\\myreactapp2\\backend\\contracts\\AssetTracker.sol",
  "compiler": {
    "name": "solc",
    "version": "0.4.24+commit.e67f0147.Emscripten.clang"
  },
  "schemaVersion": "2.0.1",
  "updatedAt": "2018-10-28T18:20:04.345Z"
}