{
  "contractName": "AssetTracker",
  "abi": [
    {
      "constant": true,
      "inputs": [],
      "name": "totalLandsCounter",
      "outputs": [
        {
          "name": "",
          "type": "uint8"
        }
      ],
      "payable": false,
      "stateMutability": "view",
      "type": "function"
    },
    {
      "constant": true,
      "inputs": [],
      "name": "owner",
      "outputs": [
        {
          "name": "",
          "type": "address"
        }
      ],
      "payable": false,
      "stateMutability": "view",
      "type": "function"
    },
    {
      "constant": true,
      "inputs": [
        {
          "name": "",
          "type": "address"
        },
        {
          "name": "",
          "type": "uint256"
        }
      ],
      "name": "ownedLands",
      "outputs": [
        {
          "name": "name",
          "type": "string"
        },
        {
          "name": "description",
          "type": "string"
        },
        {
          "name": "initialized",
          "type": "bool"
        },
        {
          "name": "manufacturer",
          "type": "string"
        },
        {
          "name": "ownerAddress",
          "type": "address"
        },
        {
          "name": "cost",
          "type": "uint256"
        },
        {
          "name": "assetId",
          "type": "uint256"
        }
      ],
      "payable": false,
      "stateMutability": "view",
      "type": "function"
    },
    {
      "constant": false,
      "inputs": [
        {
          "name": "newOwner",
          "type": "address"
        }
      ],
      "name": "transferOwnership",
      "outputs": [],
      "payable": false,
      "stateMutability": "nonpayable",
      "type": "function"
    },
    {
      "constant": true,
      "inputs": [
        {
          "name": "",
          "type": "address"
        }
      ],
      "name": "ownerAssetCount",
      "outputs": [
        {
          "name": "",
          "type": "uint256"
        }
      ],
      "payable": false,
      "stateMutability": "view",
      "type": "function"
    },
    {
      "anonymous": false,
      "inputs": [
        {
          "indexed": false,
          "name": "account",
          "type": "address"
        },
        {
          "indexed": false,
          "name": "uuid",
          "type": "uint256"
        },
        {
          "indexed": false,
          "name": "manufacturer",
          "type": "string"
        }
      ],
      "name": "AssetCreate",
      "type": "event"
    },
    {
      "anonymous": false,
      "inputs": [
        {
          "indexed": false,
          "name": "account",
          "type": "address"
        },
        {
          "indexed": false,
          "name": "uuid",
          "type": "uint256"
        },
        {
          "indexed": false,
          "name": "message",
          "type": "string"
        }
      ],
      "name": "RejectCreate",
      "type": "event"
    },
    {
      "anonymous": false,
      "inputs": [
        {
          "indexed": false,
          "name": "from",
          "type": "address"
        },
        {
          "indexed": false,
          "name": "to",
          "type": "address"
        },
        {
          "indexed": false,
          "name": "uuid",
          "type": "uint256"
        }
      ],
      "name": "AssetTransfer",
      "type": "event"
    },
    {
      "anonymous": false,
      "inputs": [
        {
          "indexed": false,
          "name": "from",
          "type": "address"
        },
        {
          "indexed": false,
          "name": "to",
          "type": "address"
        },
        {
          "indexed": false,
          "name": "uuid",
          "type": "uint256"
        },
        {
          "indexed": false,
          "name": "message",
          "type": "string"
        }
      ],
      "name": "RejectTransfer",
      "type": "event"
    },
    {
      "anonymous": false,
      "inputs": [
        {
          "indexed": false,
          "name": "id",
          "type": "uint256"
        }
      ],
      "name": "AssetDelete",
      "type": "event"
    },
    {
      "anonymous": false,
      "inputs": [
        {
          "indexed": true,
          "name": "previousOwner",
          "type": "address"
        },
        {
          "indexed": true,
          "name": "newOwner",
          "type": "address"
        }
      ],
      "name": "OwnershipTransferred",
      "type": "event"
    },
    {
      "constant": false,
      "inputs": [
        {
          "name": "_name",
          "type": "string"
        },
        {
          "name": "_description",
          "type": "string"
        },
        {
          "name": "_manufacturer",
          "type": "string"
        },
        {
          "name": "_cost",
          "type": "uint256"
        }
      ],
      "name": "createAsset",
      "outputs": [],
      "payable": false,
      "stateMutability": "nonpayable",
      "type": "function"
    },
    {
      "constant": false,
      "inputs": [
        {
          "name": "_id",
          "type": "uint256"
        }
      ],
      "name": "deleteAsset",
      "outputs": [
        {
          "name": "success",
          "type": "bool"
        }
      ],
      "payable": false,
      "stateMutability": "nonpayable",
      "type": "function"
    },
    {
      "constant": false,
      "inputs": [
        {
          "name": "_to",
          "type": "address"
        },
        {
          "name": "_uuid",
          "type": "uint256"
        }
      ],
      "name": "transferAsset",
      "outputs": [
        {
          "name": "",
          "type": "bool"
        }
      ],
      "payable": false,
      "stateMutability": "nonpayable",
      "type": "function"
    },
    {
      "constant": true,
      "inputs": [
        {
          "name": "_uuid",
          "type": "uint256"
        }
      ],
      "name": "getAssetByUUID",
      "outputs": [
        {
          "name": "",
          "type": "string"
        },
        {
          "name": "",
          "type": "string"
        },
        {
          "name": "",
          "type": "string"
        },
        {
          "name": "",
          "type": "uint256"
        },
        {
          "name": "",
          "type": "address"
        }
      ],
      "payable": false,
      "stateMutability": "view",
      "type": "function"
    },
    {
      "constant": true,
      "inputs": [
        {
          "name": "_owner",
          "type": "address"
        },
        {
          "name": "_uuid",
          "type": "uint256"
        }
      ],
      "name": "isOwnerOf",
      "outputs": [
        {
          "name": "",
          "type": "bool"
        }
      ],
      "payable": false,
      "stateMutability": "view",
      "type": "function"
    },
    {
      "constant": true,
      "inputs": [
        {
          "name": "_landHolder",
          "type": "address"
        },
        {
          "name": "_index",
          "type": "uint256"
        }
      ],
      "name": "getAsset",
      "outputs": [
        {
          "name": "",
          "type": "string"
        },
        {
          "name": "",
          "type": "string"
        },
        {
          "name": "",
          "type": "uint256"
        },
        {
          "name": "",
          "type": "string"
        },
        {
          "name": "",
          "type": "address"
        },
        {
          "name": "",
          "type": "uint256"
        }
      ],
      "payable": false,
      "stateMutability": "view",
      "type": "function"
    },
    {
      "constant": true,
      "inputs": [
        {
          "name": "_landHolder",
          "type": "address"
        }
      ],
      "name": "getNoOfAssets",
      "outputs": [
        {
          "name": "",
          "type": "uint256"
        }
      ],
      "payable": false,
      "stateMutability": "view",
      "type": "function"
    },
    {
      "constant": true,
      "inputs": [],
      "name": "getNoOfAssetsTotal",
      "outputs": [
        {
          "name": "",
          "type": "uint8"
        }
      ],
      "payable": false,
      "stateMutability": "view",
      "type": "function"
    }
  ],
  "bytecode": "0x608060405260008060146101000a81548160ff021916908360ff160217905550336000806101000a81548173ffffffffffffffffffffffffffffffffffffffff021916908373ffffffffffffffffffffffffffffffffffffffff1602179055506127fb8061006e6000396000f3006080604052600436106100c5576000357c0100000000000000000000000000000000000000000000000000000000900463ffffffff1680630d167754146100ca578063369d8138146101215780635c921eb9146102205780636928f99c14610285578063759ab37b1461043d5780637eb79b531461046e57806382f557ae146104b35780638da5cb5b146104e4578063b6f849911461053b578063c5b8f77214610725578063dfd01ff31461078a578063f2fde38b14610969578063f685f3ba146109ac575b600080fd5b3480156100d657600080fd5b5061010b600480360381019080803573ffffffffffffffffffffffffffffffffffffffff169060200190929190505050610a03565b6040518082815260200191505060405180910390f35b34801561012d57600080fd5b5061021e600480360381019080803590602001908201803590602001908080601f0160208091040260200160405190810160405280939291908181526020018383808284378201915050505050509192919290803590602001908201803590602001908080601f0160208091040260200160405190810160405280939291908181526020018383808284378201915050505050509192919290803590602001908201803590602001908080601f016020809104026020016040519081016040528093929190818152602001838380828437820191505050505050919291929080359060200190929190505050610a4f565b005b34801561022c57600080fd5b5061026b600480360381019080803573ffffffffffffffffffffffffffffffffffffffff16906020019092919080359060200190929190505050610e5f565b604051808215151515815260200191505060405180910390f35b34801561029157600080fd5b506102b0600480360381019080803590602001909291905050506117cb565b604051808060200180602001806020018681526020018573ffffffffffffffffffffffffffffffffffffffff1673ffffffffffffffffffffffffffffffffffffffff168152602001848103845289818151815260200191508051906020019080838360005b83811015610330578082015181840152602081019050610315565b50505050905090810190601f16801561035d5780820380516001836020036101000a031916815260200191505b50848103835288818151815260200191508051906020019080838360005b8381101561039657808201518184015260208101905061037b565b50505050905090810190601f1680156103c35780820380516001836020036101000a031916815260200191505b50848103825287818151815260200191508051906020019080838360005b838110156103fc5780820151818401526020810190506103e1565b50505050905090810190601f1680156104295780820380516001836020036101000a031916815260200191505b509850505050505050505060405180910390f35b34801561044957600080fd5b50610452611a4a565b604051808260ff1660ff16815260200191505060405180910390f35b34801561047a57600080fd5b5061049960048036038101908080359060200190929190505050611a60565b604051808215151515815260200191505060405180910390f35b3480156104bf57600080fd5b506104c8611d4f565b604051808260ff1660ff16815260200191505060405180910390f35b3480156104f057600080fd5b506104f9611d62565b604051808273ffffffffffffffffffffffffffffffffffffffff1673ffffffffffffffffffffffffffffffffffffffff16815260200191505060405180910390f35b34801561054757600080fd5b50610586600480360381019080803573ffffffffffffffffffffffffffffffffffffffff16906020019092919080359060200190929190505050611d87565b60405180806020018060200188151515158152602001806020018773ffffffffffffffffffffffffffffffffffffffff1673ffffffffffffffffffffffffffffffffffffffff16815260200186815260200185815260200184810384528b818151815260200191508051906020019080838360005b838110156106165780820151818401526020810190506105fb565b50505050905090810190601f1680156106435780820380516001836020036101000a031916815260200191505b5084810383528a818151815260200191508051906020019080838360005b8381101561067c578082015181840152602081019050610661565b50505050905090810190601f1680156106a95780820380516001836020036101000a031916815260200191505b50848103825288818151815260200191508051906020019080838360005b838110156106e25780820151818401526020810190506106c7565b50505050905090810190601f16801561070f5780820380516001836020036101000a031916815260200191505b509a505050505050505050505060405180910390f35b34801561073157600080fd5b50610770600480360381019080803573ffffffffffffffffffffffffffffffffffffffff16906020019092919080359060200190929190505050611fda565b604051808215151515815260200191505060405180910390f35b34801561079657600080fd5b506107d5600480360381019080803573ffffffffffffffffffffffffffffffffffffffff16906020019092919080359060200190929190505050612053565b604051808060200180602001878152602001806020018673ffffffffffffffffffffffffffffffffffffffff1673ffffffffffffffffffffffffffffffffffffffff16815260200185815260200184810384528a818151815260200191508051906020019080838360005b8381101561085b578082015181840152602081019050610840565b50505050905090810190601f1680156108885780820380516001836020036101000a031916815260200191505b50848103835289818151815260200191508051906020019080838360005b838110156108c15780820151818401526020810190506108a6565b50505050905090810190601f1680156108ee5780820380516001836020036101000a031916815260200191505b50848103825287818151815260200191508051906020019080838360005b8381101561092757808201518184015260208101905061090c565b50505050905090810190601f1680156109545780820380516001836020036101000a031916815260200191505b50995050505050505050505060405180910390f35b34801561097557600080fd5b506109aa600480360381019080803573ffffffffffffffffffffffffffffffffffffffff169060200190929190505050612498565b005b3480156109b857600080fd5b506109ed600480360381019080803573ffffffffffffffffffffffffffffffffffffffff1690602001909291905050506125ed565b6040518082815260200191505060405180910390f35b6000600360008373ffffffffffffffffffffffffffffffffffffffff1673ffffffffffffffffffffffffffffffffffffffff168152602001908152602001600020805490509050919050565b610a57612605565b60e0604051908101604052808681526020018581526020016001151581526020018481526020013373ffffffffffffffffffffffffffffffffffffffff168152602001838152602001600060149054906101000a900460ff1660ff168152509050600360003373ffffffffffffffffffffffffffffffffffffffff1673ffffffffffffffffffffffffffffffffffffffff16815260200190815260200160002081908060018154018082558091505090600182039060005260206000209060070201600090919290919091506000820151816000019080519060200190610b3f92919061265b565b506020820151816001019080519060200190610b5c92919061265b565b5060408201518160020160006101000a81548160ff0219169083151502179055506060820151816003019080519060200190610b9992919061265b565b5060808201518160040160006101000a81548173ffffffffffffffffffffffffffffffffffffffff021916908373ffffffffffffffffffffffffffffffffffffffff16021790555060a0820151816005015560c0820151816006015550505080600160008060149054906101000a900460ff1660ff1681526020019081526020016000206000820151816000019080519060200190610c3992919061265b565b506020820151816001019080519060200190610c5692919061265b565b5060408201518160020160006101000a81548160ff0219169083151502179055506060820151816003019080519060200190610c9392919061265b565b5060808201518160040160006101000a81548173ffffffffffffffffffffffffffffffffffffffff021916908373ffffffffffffffffffffffffffffffffffffffff16021790555060a0820151816005015560c08201518160060155905050600460003373ffffffffffffffffffffffffffffffffffffffff1673ffffffffffffffffffffffffffffffffffffffff168152602001908152602001600020600081548092919060010191905055507f4b26fe7b1d249e481ff7e59a809e125494d7533b9604149e804679738ecf4a8d33600060149054906101000a900460ff1685604051808473ffffffffffffffffffffffffffffffffffffffff1673ffffffffffffffffffffffffffffffffffffffff1681526020018360ff16815260200180602001828103825283818151815260200191508051906020019080838360005b83811015610def578082015181840152602081019050610dd4565b50505050905090810190601f168015610e1c5780820380516001836020036101000a031916815260200191505b5094505050505060405180910390a16001600060149054906101000a900460ff1601600060146101000a81548160ff021916908360ff1602179055505050505050565b600080610e6a612605565b6001600085815260200190815260200160002060020160009054906101000a900460ff161515610f71577faaeb050ccadb461033f405ddfe0eaef0114645534413c100e9db6aa49d3a4e7c338686604051808473ffffffffffffffffffffffffffffffffffffffff1673ffffffffffffffffffffffffffffffffffffffff1681526020018373ffffffffffffffffffffffffffffffffffffffff1673ffffffffffffffffffffffffffffffffffffffff168152602001828152602001806020018281038252601e8152602001807f4e6f20617373657420776974682074686973205555494420657869737473000081525060200194505050505060405180910390a16117c3565b600260003373ffffffffffffffffffffffffffffffffffffffff1673ffffffffffffffffffffffffffffffffffffffff168152602001908152602001600020600085815260200190815260200160002060009054906101000a900460ff1615156110b2577faaeb050ccadb461033f405ddfe0eaef0114645534413c100e9db6aa49d3a4e7c338686604051808473ffffffffffffffffffffffffffffffffffffffff1673ffffffffffffffffffffffffffffffffffffffff1681526020018373ffffffffffffffffffffffffffffffffffffffff1673ffffffffffffffffffffffffffffffffffffffff168152602001828152602001806020018281038252601f8152602001807f53656e64657220646f6573206e6f74206f776e20746869732061737365742e0081525060200194505050505060405180910390a16117c3565b600091505b600360003373ffffffffffffffffffffffffffffffffffffffff1673ffffffffffffffffffffffffffffffffffffffff168152602001908152602001600020805490508210156117be5783600360003373ffffffffffffffffffffffffffffffffffffffff1673ffffffffffffffffffffffffffffffffffffffff1681526020019081526020016000208381548110151561114e57fe5b90600052602060002090600702016006015414156117b15760e060405190810160405280600360003373ffffffffffffffffffffffffffffffffffffffff1673ffffffffffffffffffffffffffffffffffffffff168152602001908152602001600020848154811015156111be57fe5b90600052602060002090600702016000018054600181600116156101000203166002900480601f0160208091040260200160405190810160405280929190818152602001828054600181600116156101000203166002900480156112635780601f1061123857610100808354040283529160200191611263565b820191906000526020600020905b81548152906001019060200180831161124657829003601f168201915b50505050508152602001600360003373ffffffffffffffffffffffffffffffffffffffff1673ffffffffffffffffffffffffffffffffffffffff168152602001908152602001600020848154811015156112b957fe5b90600052602060002090600702016001018054600181600116156101000203166002900480601f01602080910402602001604051908101604052809291908181526020018280546001816001161561010002031660029004801561135e5780601f106113335761010080835404028352916020019161135e565b820191906000526020600020905b81548152906001019060200180831161134157829003601f168201915b50505050508152602001600115158152602001600360003373ffffffffffffffffffffffffffffffffffffffff1673ffffffffffffffffffffffffffffffffffffffff168152602001908152602001600020848154811015156113bd57fe5b90600052602060002090600702016003018054600181600116156101000203166002900480601f0160208091040260200160405190810160405280929190818152602001828054600181600116156101000203166002900480156114625780601f1061143757610100808354040283529160200191611462565b820191906000526020600020905b81548152906001019060200180831161144557829003601f168201915b505050505081526020018673ffffffffffffffffffffffffffffffffffffffff168152602001600360003373ffffffffffffffffffffffffffffffffffffffff1673ffffffffffffffffffffffffffffffffffffffff168152602001908152602001600020848154811015156114d457fe5b9060005260206000209060070201600501548152602001858152509050600360008673ffffffffffffffffffffffffffffffffffffffff1673ffffffffffffffffffffffffffffffffffffffff1681526020019081526020016000208190806001815401808255809150509060018203906000526020600020906007020160009091929091909150600082015181600001908051906020019061157892919061265b565b50602082015181600101908051906020019061159592919061265b565b5060408201518160020160006101000a81548160ff02191690831515021790555060608201518160030190805190602001906115d292919061265b565b5060808201518160040160006101000a81548173ffffffffffffffffffffffffffffffffffffffff021916908373ffffffffffffffffffffffffffffffffffffffff16021790555060a0820151816005015560c08201518160060155505050600360003373ffffffffffffffffffffffffffffffffffffffff1673ffffffffffffffffffffffffffffffffffffffff1681526020019081526020016000208281548110151561167d57fe5b90600052602060002090600702016000808201600061169c91906126db565b6001820160006116ac91906126db565b6002820160006101000a81549060ff02191690556003820160006116d091906126db565b6004820160006101000a81549073ffffffffffffffffffffffffffffffffffffffff02191690556005820160009055600682016000905550507f49419b7bcd06fd32be5c2c39a4521b14bcf3650473f07dcbbbd86343c9eb808f338686604051808473ffffffffffffffffffffffffffffffffffffffff1673ffffffffffffffffffffffffffffffffffffffff1681526020018373ffffffffffffffffffffffffffffffffffffffff1673ffffffffffffffffffffffffffffffffffffffff168152602001828152602001935050505060405180910390a1600192506117c3565b81806001019250506110b7565b600092505b505092915050565b6060806060600080600160008781526020019081526020016000206000016001600088815260200190815260200160002060010160016000898152602001908152602001600020600301600160008a815260200190815260200160002060050154600160008b815260200190815260200160002060040160009054906101000a900473ffffffffffffffffffffffffffffffffffffffff16848054600181600116156101000203166002900480601f0160208091040260200160405190810160405280929190818152602001828054600181600116156101000203166002900480156118f85780601f106118cd576101008083540402835291602001916118f8565b820191906000526020600020905b8154815290600101906020018083116118db57829003601f168201915b50505050509450838054600181600116156101000203166002900480601f0160208091040260200160405190810160405280929190818152602001828054600181600116156101000203166002900480156119945780601f1061196957610100808354040283529160200191611994565b820191906000526020600020905b81548152906001019060200180831161197757829003601f168201915b50505050509350828054600181600116156101000203166002900480601f016020809104026020016040519081016040528092919081815260200182805460018160011615610100020316600290048015611a305780601f10611a0557610100808354040283529160200191611a30565b820191906000526020600020905b815481529060010190602001808311611a1357829003601f168201915b505050505092509450945094509450945091939590929450565b60008060149054906101000a900460ff16905090565b60008060008060149054906101000a900460ff1660ff16111515611a8357600080fd5b600090505b600060149054906101000a900460ff1660ff16811015611d44578260016000838152602001908152602001600020600601541415611d3757600160006001600060149054906101000a900460ff160360ff1681526020019081526020016000206001600083815260200190815260200160002060008201816000019080546001816001161561010002031660029004611b22929190612723565b5060018201816001019080546001816001161561010002031660029004611b4a929190612723565b506002820160009054906101000a900460ff168160020160006101000a81548160ff02191690831515021790555060038201816003019080546001816001161561010002031660029004611b9f929190612723565b506004820160009054906101000a900473ffffffffffffffffffffffffffffffffffffffff168160040160006101000a81548173ffffffffffffffffffffffffffffffffffffffff021916908373ffffffffffffffffffffffffffffffffffffffff1602179055506005820154816005015560068201548160060155905050600160006001600060149054906101000a900460ff160360ff16815260200190815260200160002060008082016000611c5791906126db565b600182016000611c6791906126db565b6002820160006101000a81549060ff0219169055600382016000611c8b91906126db565b6004820160006101000a81549073ffffffffffffffffffffffffffffffffffffffff02191690556005820160009055600682016000905550506000601481819054906101000a900460ff16809291906001900391906101000a81548160ff021916908360ff160217905550507f0ea7e92c3472acca4d5f147aa079ae95c6619a45b264395e7bd559f019bc899c836040518082815260200191505060405180910390a160019150611d49565b8080600101915050611a88565b600091505b50919050565b600060149054906101000a900460ff1681565b6000809054906101000a900473ffffffffffffffffffffffffffffffffffffffff1681565b600360205281600052604060002081815481101515611da257fe5b906000526020600020906007020160009150915050806000018054600181600116156101000203166002900480601f016020809104026020016040519081016040528092919081815260200182805460018160011615610100020316600290048015611e4f5780601f10611e2457610100808354040283529160200191611e4f565b820191906000526020600020905b815481529060010190602001808311611e3257829003601f168201915b505050505090806001018054600181600116156101000203166002900480601f016020809104026020016040519081016040528092919081815260200182805460018160011615610100020316600290048015611eed5780601f10611ec257610100808354040283529160200191611eed565b820191906000526020600020905b815481529060010190602001808311611ed057829003601f168201915b5050505050908060020160009054906101000a900460ff1690806003018054600181600116156101000203166002900480601f016020809104026020016040519081016040528092919081815260200182805460018160011615610100020316600290048015611f9e5780601f10611f7357610100808354040283529160200191611f9e565b820191906000526020600020905b815481529060010190602001808311611f8157829003601f168201915b5050505050908060040160009054906101000a900473ffffffffffffffffffffffffffffffffffffffff16908060050154908060060154905087565b6000600260008473ffffffffffffffffffffffffffffffffffffffff1673ffffffffffffffffffffffffffffffffffffffff168152602001908152602001600020600083815260200190815260200160002060009054906101000a900460ff1615612048576001905061204d565b600090505b92915050565b60608060006060600080600360008973ffffffffffffffffffffffffffffffffffffffff1673ffffffffffffffffffffffffffffffffffffffff168152602001908152602001600020878154811015156120a957fe5b9060005260206000209060070201600001600360008a73ffffffffffffffffffffffffffffffffffffffff1673ffffffffffffffffffffffffffffffffffffffff1681526020019081526020016000208881548110151561210657fe5b9060005260206000209060070201600101600360008b73ffffffffffffffffffffffffffffffffffffffff1673ffffffffffffffffffffffffffffffffffffffff1681526020019081526020016000208981548110151561216357fe5b906000526020600020906007020160050154600360008c73ffffffffffffffffffffffffffffffffffffffff1673ffffffffffffffffffffffffffffffffffffffff1681526020019081526020016000208a8154811015156121c157fe5b9060005260206000209060070201600301600360008d73ffffffffffffffffffffffffffffffffffffffff1673ffffffffffffffffffffffffffffffffffffffff1681526020019081526020016000208b81548110151561221e57fe5b906000526020600020906007020160040160009054906101000a900473ffffffffffffffffffffffffffffffffffffffff16600360008e73ffffffffffffffffffffffffffffffffffffffff1673ffffffffffffffffffffffffffffffffffffffff1681526020019081526020016000208c81548110151561229c57fe5b906000526020600020906007020160060154858054600181600116156101000203166002900480601f0160208091040260200160405190810160405280929190818152602001828054600181600116156101000203166002900480156123435780601f1061231857610100808354040283529160200191612343565b820191906000526020600020905b81548152906001019060200180831161232657829003601f168201915b50505050509550848054600181600116156101000203166002900480601f0160208091040260200160405190810160405280929190818152602001828054600181600116156101000203166002900480156123df5780601f106123b4576101008083540402835291602001916123df565b820191906000526020600020905b8154815290600101906020018083116123c257829003601f168201915b50505050509450828054600181600116156101000203166002900480601f01602080910402602001604051908101604052809291908181526020018280546001816001161561010002031660029004801561247b5780601f106124505761010080835404028352916020019161247b565b820191906000526020600020905b81548152906001019060200180831161245e57829003601f168201915b505050505092509550955095509550955095509295509295509295565b6000809054906101000a900473ffffffffffffffffffffffffffffffffffffffff1673ffffffffffffffffffffffffffffffffffffffff163373ffffffffffffffffffffffffffffffffffffffff161415156124f357600080fd5b600073ffffffffffffffffffffffffffffffffffffffff168173ffffffffffffffffffffffffffffffffffffffff161415151561252f57600080fd5b8073ffffffffffffffffffffffffffffffffffffffff166000809054906101000a900473ffffffffffffffffffffffffffffffffffffffff1673ffffffffffffffffffffffffffffffffffffffff167f8be0079c531659141344cd1fd0a4f28419497f9722a3daafe3b4186f6b6457e060405160405180910390a3806000806101000a81548173ffffffffffffffffffffffffffffffffffffffff021916908373ffffffffffffffffffffffffffffffffffffffff16021790555050565b60046020528060005260406000206000915090505481565b60e060405190810160405280606081526020016060815260200160001515815260200160608152602001600073ffffffffffffffffffffffffffffffffffffffff16815260200160008152602001600081525090565b828054600181600116156101000203166002900490600052602060002090601f016020900481019282601f1061269c57805160ff19168380011785556126ca565b828001600101855582156126ca579182015b828111156126c95782518255916020019190600101906126ae565b5b5090506126d791906127aa565b5090565b50805460018160011615610100020316600290046000825580601f106127015750612720565b601f01602090049060005260206000209081019061271f91906127aa565b5b50565b828054600181600116156101000203166002900490600052602060002090601f016020900481019282601f1061275c5780548555612799565b8280016001018555821561279957600052602060002091601f016020900482015b8281111561279857825482559160010191906001019061277d565b5b5090506127a691906127aa565b5090565b6127cc91905b808211156127c85760008160009055506001016127b0565b5090565b905600a165627a7a7230582045cc639c1aed95ef00461410a8439d1c41ed29e462e1fd398d790953e32c9c3a0029",
  "source": "//a basic asset tracking functionality in the blockchain.\r\n//from: https://dzone.com/articles/implementing-a-simple-smart-contract-for-asset-tra\r\n\r\npragma solidity ^0.4.24;\r\nimport \"./ownable.sol\";\r\ncontract AssetTracker is Ownable{\r\n\r\n\r\n/*\r\nFor different real-world events in the supply chain, such as asset creation or asset transfer, we define counterparts in the smart contract.\r\n\r\n*/\r\n  event AssetCreate(address account, uint uuid, string manufacturer);\r\n  event RejectCreate(address account, uint uuid, string message);\r\n  event AssetTransfer(address from, address to, uint uuid);\r\n  event RejectTransfer(address from, address to, uint uuid, string message);\r\n  event AssetDelete(uint id);\r\nstruct Asset {\r\n    string name;\r\n    string description;\r\n    bool initialized;\r\n    string manufacturer;\r\n    address ownerAddress;\r\n    uint cost;\r\n    uint assetId;\r\n}\r\nuint8 public totalLandsCounter=0; //total no of lands via this contract at any time\r\nmapping(uint  => Asset) private assetStore;//da intero a un Asset\r\n//assetStore[uuid] = Asset(name, description, true, manufacturer);\r\nmapping(address => mapping(uint => bool)) private walletStore;\r\n\r\nmapping (address => Asset[]) public ownedLands;\r\nmapping (address => uint) public ownerAssetCount;\r\n\r\n\r\n/*\r\nThe first function that we would need is the create an asset function.\r\nIt takes all the information needed to specify the asset and checks if the asset already exists.\r\nIn this case, we trigger a formerly declared event  RejectCreate().\r\nIf we have a new asset at hand, we store the data in the asset store and create the relation\r\nbetween the message sender's wallet and the asset's uuid\r\n\r\n*/\r\n\r\n//owner shall add lands via this function\r\nfunction createAsset(string _name, string _description, string _manufacturer, uint _cost) public{\r\n    // if(assetStore[uuid].initialized) {\r\n    //     emit RejectCreate(msg.sender, uuid, \"Asset with this UUID already exists.\");\r\n    //     return;\r\n    //   }\r\n\r\n\r\n      Asset memory myAsset = Asset(\r\n          {\r\n             name:_name,\r\n             description:_description,\r\n             initialized: true,\r\n             manufacturer:_manufacturer,\r\n             ownerAddress:msg.sender,\r\n             cost:_cost,\r\n             assetId: totalLandsCounter\r\n          });\r\n      ownedLands[msg.sender].push(myAsset); //tutti gli asset per ogni owner\r\n\r\n      assetStore[totalLandsCounter] = myAsset;\r\n      ownerAssetCount[msg.sender]++;\r\n      emit AssetCreate(msg.sender, totalLandsCounter, _manufacturer);\r\n      totalLandsCounter = totalLandsCounter + 1;\r\n\r\n}\r\n\r\n\r\n\r\nfunction deleteAsset(uint _id) public returns(bool success){\r\n       require(totalLandsCounter>0);\r\n       for(uint256 i =0; i< totalLandsCounter; i++){\r\n          if(assetStore[i].assetId == _id){\r\n             assetStore[i] = assetStore[totalLandsCounter-1]; // pushing last into current arrray index which we gonna delete\r\n             delete assetStore[totalLandsCounter-1]; // now deleteing last index\r\n             totalLandsCounter--; //total count decrease\r\n             //assetStore.length--; // array length decrease\r\n             //emit event\r\n             emit AssetDelete(_id);\r\n             return true;\r\n          }\r\n      }\r\n      return false;\r\n  }\r\n\r\n\r\n/*\r\nIn order to transfer the asset, we create a function that takes the address of the target wallet along with the asset's id.\r\nWe check two pre-conditions:\r\n- the asset actually exists and\r\n- the transaction initiator is actually in possession of the asset.\r\n\r\n*/\r\nfunction transferAsset(address _to, uint _uuid) public returns (bool){\r\n\r\n\r\n  if(!assetStore[_uuid].initialized) {\r\n        emit RejectTransfer(msg.sender, _to, _uuid, \"No asset with this UUID exists\");\r\n        return;\r\n    }\r\n    if(!walletStore[msg.sender][_uuid]) {\r\n        emit RejectTransfer(msg.sender, _to, _uuid, \"Sender does not own this asset.\");\r\n        return;\r\n    }\r\n    //find out the particular land ID in owner's collection\r\n    for(uint i=0; i < (ownedLands[msg.sender].length);i++)\r\n    {\r\n        //if given land ID is indeed in owner's collection\r\n        if (ownedLands[msg.sender][i].assetId == _uuid)\r\n        {\r\n            //copy land in new owner's collection\r\n            Asset memory myAsset = Asset(\r\n                {\r\n\r\n                    cost: ownedLands[msg.sender][i].cost,\r\n                    name:ownedLands[msg.sender][i].name,\r\n                    description:ownedLands[msg.sender][i].description,\r\n                    initialized: true,\r\n                    manufacturer:ownedLands[msg.sender][i].manufacturer,\r\n                    ownerAddress:_to,\r\n                    assetId: _uuid\r\n                });\r\n            ownedLands[_to].push(myAsset);\r\n\r\n            //remove land from current ownerAddress\r\n            delete ownedLands[msg.sender][i];\r\n\r\n\r\n            //inform the world\r\n          emit AssetTransfer(msg.sender, _to, _uuid);\r\n\r\n            return true;\r\n        }\r\n    }\r\n\r\n    //if we still did not return, return false\r\n    return false;\r\n\r\n\r\n\r\n\r\n    emit AssetTransfer(msg.sender, _to, _uuid);\r\n}\r\n\r\n\r\n/*\r\nWe would also like to have access to the asset properties by just giving the uuid\r\n*/\r\n  function getAssetByUUID(uint _uuid) public view returns (string, string, string, uint,address) {\r\n      return (assetStore[_uuid].name, assetStore[_uuid].description, assetStore[_uuid].manufacturer, assetStore[_uuid].cost,assetStore[_uuid].ownerAddress );\r\n  }\r\n\r\n/*\r\nFurthermore, we would like to have a simple way to prove the ownership of an asset\r\n*/\r\n\r\n\r\n  function isOwnerOf(address _owner, uint _uuid) public constant returns (bool) {\r\n    if(walletStore[_owner][_uuid]) {\r\n        return true;\r\n    }\r\n    return false;\r\n}\r\n\r\n\r\nfunction getAsset(address _landHolder, uint _index) view  public returns (string, string, uint, string, address, uint)\r\n{\r\n    // return (ownedLands[_landHolder][_index].name,\r\n    //         ownedLands[_landHolder][_index].description,\r\n    //         ownedLands[_landHolder][_index].cost,\r\n    //         ownedLands[_landHolder][_index].ownerAddress\r\n    //       );\r\n\r\n    return (ownedLands[_landHolder][_index].name,\r\n            ownedLands[_landHolder][_index].description,\r\n            ownedLands[_landHolder][_index].cost,\r\n            ownedLands[_landHolder][_index].manufacturer,\r\n            ownedLands[_landHolder][_index].ownerAddress,\r\n            ownedLands[_landHolder][_index].assetId\r\n          );\r\n}\r\n\r\nfunction getNoOfAssets(address _landHolder) public view returns (uint)\r\n{\r\n   return ownedLands[_landHolder].length;\r\n\r\n}\r\n\r\n\r\nfunction getNoOfAssetsTotal() view public returns (uint8)\r\n{\r\n  //  return ownedLands[_landHolder].length;\r\n   return totalLandsCounter;\r\n}\r\n\r\n}\r\n",
  "sourcePath": "D:\\myreactapp2\\backend\\contracts\\AssetTracker.sol",
  "compiler": {
    "name": "solc",
    "version": "0.4.24+commit.e67f0147.Emscripten.clang"
  },
  "schemaVersion": "2.0.1",
  "updatedAt": "2018-11-05T15:23:53.612Z"
}