{
  "contractName": "LandContract",
  "abi": [
    {
      "constant": true,
      "inputs": [
        {
          "name": "",
          "type": "address"
        },
        {
          "name": "",
          "type": "uint256"
        }
      ],
      "name": "__ownedLands",
      "outputs": [
        {
          "name": "ownerAddress",
          "type": "address"
        },
        {
          "name": "location",
          "type": "string"
        },
        {
          "name": "cost",
          "type": "uint256"
        },
        {
          "name": "landID",
          "type": "uint256"
        }
      ],
      "payable": false,
      "stateMutability": "view",
      "type": "function"
    },
    {
      "constant": true,
      "inputs": [],
      "name": "totalLandsCounter",
      "outputs": [
        {
          "name": "",
          "type": "uint256"
        }
      ],
      "payable": false,
      "stateMutability": "view",
      "type": "function"
    },
    {
      "constant": true,
      "inputs": [],
      "name": "owner",
      "outputs": [
        {
          "name": "",
          "type": "address"
        }
      ],
      "payable": false,
      "stateMutability": "view",
      "type": "function"
    },
    {
      "inputs": [],
      "payable": false,
      "stateMutability": "nonpayable",
      "type": "constructor"
    },
    {
      "anonymous": false,
      "inputs": [
        {
          "indexed": false,
          "name": "_owner",
          "type": "address"
        },
        {
          "indexed": false,
          "name": "_landID",
          "type": "uint256"
        }
      ],
      "name": "Add",
      "type": "event"
    },
    {
      "anonymous": false,
      "inputs": [
        {
          "indexed": true,
          "name": "_from",
          "type": "address"
        },
        {
          "indexed": true,
          "name": "_to",
          "type": "address"
        },
        {
          "indexed": false,
          "name": "_landID",
          "type": "uint256"
        }
      ],
      "name": "Transfer",
      "type": "event"
    },
    {
      "constant": false,
      "inputs": [
        {
          "name": "_location",
          "type": "string"
        },
        {
          "name": "_cost",
          "type": "uint256"
        }
      ],
      "name": "addLand",
      "outputs": [],
      "payable": false,
      "stateMutability": "nonpayable",
      "type": "function"
    },
    {
      "constant": false,
      "inputs": [
        {
          "name": "_landBuyer",
          "type": "address"
        },
        {
          "name": "_landID",
          "type": "uint256"
        }
      ],
      "name": "transferLand",
      "outputs": [
        {
          "name": "",
          "type": "bool"
        }
      ],
      "payable": false,
      "stateMutability": "nonpayable",
      "type": "function"
    },
    {
      "constant": false,
      "inputs": [
        {
          "name": "_landHolder",
          "type": "address"
        },
        {
          "name": "_index",
          "type": "uint256"
        }
      ],
      "name": "getLand",
      "outputs": [
        {
          "name": "",
          "type": "string"
        },
        {
          "name": "",
          "type": "uint256"
        },
        {
          "name": "",
          "type": "address"
        },
        {
          "name": "",
          "type": "uint256"
        }
      ],
      "payable": false,
      "stateMutability": "nonpayable",
      "type": "function"
    },
    {
      "constant": false,
      "inputs": [
        {
          "name": "_landHolder",
          "type": "address"
        }
      ],
      "name": "getNoOfLands",
      "outputs": [
        {
          "name": "",
          "type": "uint256"
        }
      ],
      "payable": false,
      "stateMutability": "nonpayable",
      "type": "function"
    }
  ],
  "bytecode": "0x608060405234801561001057600080fd5b50336000806101000a81548173ffffffffffffffffffffffffffffffffffffffff021916908373ffffffffffffffffffffffffffffffffffffffff1602179055506000600181905550610fc4806100686000396000f300608060405260043610610083576000357c0100000000000000000000000000000000000000000000000000000000900463ffffffff16806305efe9c714610088578063657425551461018f57806382f557ae146102965780638da5cb5b146102c1578063b3f40d6a14610318578063db9d05511461037d578063e6ed0fff146103d4575b600080fd5b34801561009457600080fd5b506100d3600480360381019080803573ffffffffffffffffffffffffffffffffffffffff16906020019092919080359060200190929190505050610447565b604051808573ffffffffffffffffffffffffffffffffffffffff1673ffffffffffffffffffffffffffffffffffffffff16815260200180602001848152602001838152602001828103825285818151815260200191508051906020019080838360005b83811015610151578082015181840152602081019050610136565b50505050905090810190601f16801561017e5780820380516001836020036101000a031916815260200191505b509550505050505060405180910390f35b34801561019b57600080fd5b506101da600480360381019080803573ffffffffffffffffffffffffffffffffffffffff1690602001909291908035906020019092919050505061054b565b60405180806020018581526020018473ffffffffffffffffffffffffffffffffffffffff1673ffffffffffffffffffffffffffffffffffffffff168152602001838152602001828103825286818151815260200191508051906020019080838360005b8381101561025857808201518184015260208101905061023d565b50505050905090810190601f1680156102855780820380516001836020036101000a031916815260200191505b509550505050505060405180910390f35b3480156102a257600080fd5b506102ab610796565b6040518082815260200191505060405180910390f35b3480156102cd57600080fd5b506102d661079c565b604051808273ffffffffffffffffffffffffffffffffffffffff1673ffffffffffffffffffffffffffffffffffffffff16815260200191505060405180910390f35b34801561032457600080fd5b50610363600480360381019080803573ffffffffffffffffffffffffffffffffffffffff169060200190929190803590602001909291905050506107c1565b604051808215151515815260200191505060405180910390f35b34801561038957600080fd5b506103be600480360381019080803573ffffffffffffffffffffffffffffffffffffffff169060200190929190505050610c1e565b6040518082815260200191505060405180910390f35b3480156103e057600080fd5b50610445600480360381019080803590602001908201803590602001908080601f016020809104026020016040519081016040528093929190818152602001838380828437820191505050505050919291929080359060200190929190505050610c6a565b005b60026020528160005260406000208181548110151561046257fe5b9060005260206000209060040201600091509150508060000160009054906101000a900473ffffffffffffffffffffffffffffffffffffffff1690806001018054600181600116156101000203166002900480601f0160208091040260200160405190810160405280929190818152602001828054600181600116156101000203166002900480156105355780601f1061050a57610100808354040283529160200191610535565b820191906000526020600020905b81548152906001019060200180831161051857829003601f168201915b5050505050908060020154908060030154905084565b60606000806000600260008773ffffffffffffffffffffffffffffffffffffffff1673ffffffffffffffffffffffffffffffffffffffff1681526020019081526020016000208581548110151561059e57fe5b9060005260206000209060040201600101600260008873ffffffffffffffffffffffffffffffffffffffff1673ffffffffffffffffffffffffffffffffffffffff168152602001908152602001600020868154811015156105fb57fe5b906000526020600020906004020160020154600260008973ffffffffffffffffffffffffffffffffffffffff1673ffffffffffffffffffffffffffffffffffffffff1681526020019081526020016000208781548110151561065957fe5b906000526020600020906004020160000160009054906101000a900473ffffffffffffffffffffffffffffffffffffffff16600260008a73ffffffffffffffffffffffffffffffffffffffff1673ffffffffffffffffffffffffffffffffffffffff168152602001908152602001600020888154811015156106d757fe5b906000526020600020906004020160030154838054600181600116156101000203166002900480601f01602080910402602001604051908101604052809291908181526020018280546001816001161561010002031660029004801561077e5780601f106107535761010080835404028352916020019161077e565b820191906000526020600020905b81548152906001019060200180831161076157829003601f168201915b50505050509350935093509350935092959194509250565b60015481565b6000809054906101000a900473ffffffffffffffffffffffffffffffffffffffff1681565b6000806107cc610e6c565b600091505b600260003373ffffffffffffffffffffffffffffffffffffffff1673ffffffffffffffffffffffffffffffffffffffff16815260200190815260200160002080549050821015610c115783600260003373ffffffffffffffffffffffffffffffffffffffff1673ffffffffffffffffffffffffffffffffffffffff1681526020019081526020016000208381548110151561086857fe5b9060005260206000209060040201600301541415610c04576080604051908101604052808673ffffffffffffffffffffffffffffffffffffffff168152602001600260003373ffffffffffffffffffffffffffffffffffffffff1673ffffffffffffffffffffffffffffffffffffffff168152602001908152602001600020848154811015156108f457fe5b90600052602060002090600402016001018054600181600116156101000203166002900480601f0160208091040260200160405190810160405280929190818152602001828054600181600116156101000203166002900480156109995780601f1061096e57610100808354040283529160200191610999565b820191906000526020600020905b81548152906001019060200180831161097c57829003601f168201915b50505050508152602001600260003373ffffffffffffffffffffffffffffffffffffffff1673ffffffffffffffffffffffffffffffffffffffff168152602001908152602001600020848154811015156109ef57fe5b9060005260206000209060040201600201548152602001858152509050600260008673ffffffffffffffffffffffffffffffffffffffff1673ffffffffffffffffffffffffffffffffffffffff168152602001908152602001600020819080600181540180825580915050906001820390600052602060002090600402016000909192909190915060008201518160000160006101000a81548173ffffffffffffffffffffffffffffffffffffffff021916908373ffffffffffffffffffffffffffffffffffffffff1602179055506020820151816001019080519060200190610ada929190610eab565b506040820151816002015560608201518160030155505050600260003373ffffffffffffffffffffffffffffffffffffffff1673ffffffffffffffffffffffffffffffffffffffff16815260200190815260200160002082815481101515610b3e57fe5b9060005260206000209060040201600080820160006101000a81549073ffffffffffffffffffffffffffffffffffffffff0219169055600182016000610b849190610f2b565b6002820160009055600382016000905550508473ffffffffffffffffffffffffffffffffffffffff163373ffffffffffffffffffffffffffffffffffffffff167fddf252ad1be2c89b69c2b068fc378daa952ba7f163c4a11628f55a4df523b3ef866040518082815260200191505060405180910390a360019250610c16565b81806001019250506107d1565b600092505b505092915050565b6000600260008373ffffffffffffffffffffffffffffffffffffffff1673ffffffffffffffffffffffffffffffffffffffff168152602001908152602001600020805490509050919050565b610c72610e6c565b6000809054906101000a900473ffffffffffffffffffffffffffffffffffffffff1673ffffffffffffffffffffffffffffffffffffffff163373ffffffffffffffffffffffffffffffffffffffff16141515610ccd57600080fd5b60018054016001819055506080604051908101604052803373ffffffffffffffffffffffffffffffffffffffff1681526020018481526020018381526020016001548152509050600260003373ffffffffffffffffffffffffffffffffffffffff1673ffffffffffffffffffffffffffffffffffffffff168152602001908152602001600020819080600181540180825580915050906001820390600052602060002090600402016000909192909190915060008201518160000160006101000a81548173ffffffffffffffffffffffffffffffffffffffff021916908373ffffffffffffffffffffffffffffffffffffffff1602179055506020820151816001019080519060200190610de2929190610eab565b5060408201518160020155606082015181600301555050507f2728c9d3205d667bbc0eefdfeda366261b4d021949630c047f3e5834b30611ab33600154604051808373ffffffffffffffffffffffffffffffffffffffff1673ffffffffffffffffffffffffffffffffffffffff1681526020018281526020019250505060405180910390a1505050565b608060405190810160405280600073ffffffffffffffffffffffffffffffffffffffff1681526020016060815260200160008152602001600081525090565b828054600181600116156101000203166002900490600052602060002090601f016020900481019282601f10610eec57805160ff1916838001178555610f1a565b82800160010185558215610f1a579182015b82811115610f19578251825591602001919060010190610efe565b5b509050610f279190610f73565b5090565b50805460018160011615610100020316600290046000825580601f10610f515750610f70565b601f016020900490600052602060002090810190610f6f9190610f73565b5b50565b610f9591905b80821115610f91576000816000905550600101610f79565b5090565b905600a165627a7a72305820cfe1bde319ff7f3fc9caa55439f42d8a03370f4976ecfb53fcf691da1b849ef90029",
  "source": "pragma solidity ^0.4.24;\r\n\r\ncontract LandContract\r\n{\r\n    struct Land\r\n    {\r\n        address ownerAddress;\r\n        string location;\r\n        uint cost;\r\n        uint landID;\r\n    }\r\n    address public owner;   // government who creates the contract\r\n\r\n    uint public totalLandsCounter; //total no of lands via this contract at any time\r\n\r\n    //define who is owner\r\n    constructor() public\r\n    {\r\n        owner = msg.sender;\r\n        totalLandsCounter = 0;\r\n    }\r\n\r\n    //land addition event\r\n    event Add(address _owner, uint _landID);\r\n\r\n    //land transfer event\r\n    event Transfer(address indexed _from, address indexed _to, uint _landID);\r\n\r\n    modifier isOwner\r\n    {\r\n        require(msg.sender == owner);\r\n        _;\r\n    }\r\n\r\n    //one account can hold many lands (many landTokens, each token one land)\r\n    mapping (address => Land[]) public __ownedLands;\r\n\r\n\r\n    //1. FIRST OPERATION\r\n    //owner shall add lands via this function\r\n    function addLand(string _location, uint _cost) public isOwner\r\n    {\r\n        totalLandsCounter = totalLandsCounter + 1;\r\n        Land memory myLand = Land(\r\n            {\r\n                ownerAddress: msg.sender,\r\n                location: _location,\r\n                cost: _cost,\r\n                landID: totalLandsCounter\r\n            });\r\n        __ownedLands[msg.sender].push(myLand);\r\n      emit  Add(msg.sender, totalLandsCounter);\r\n\r\n    }\r\n\r\n\r\n    //2. SECOND OPERATION\r\n    //caller (owner/anyone) to transfer land to buyer provided caller is owner of the land\r\n    function transferLand(address _landBuyer, uint _landID) public returns (bool)\r\n    {\r\n        //find out the particular land ID in owner's collection\r\n        for(uint i=0; i < (__ownedLands[msg.sender].length);i++)\r\n        {\r\n            //if given land ID is indeed in owner's collection\r\n            if (__ownedLands[msg.sender][i].landID == _landID)\r\n            {\r\n                //copy land in new owner's collection\r\n                Land memory myLand = Land(\r\n                    {\r\n                        ownerAddress:_landBuyer,\r\n                        location: __ownedLands[msg.sender][i].location,\r\n                        cost: __ownedLands[msg.sender][i].cost,\r\n                        landID: _landID\r\n                    });\r\n                __ownedLands[_landBuyer].push(myLand);\r\n\r\n                //remove land from current ownerAddress\r\n                delete __ownedLands[msg.sender][i];\r\n\r\n\r\n                //inform the world\r\n              emit  Transfer(msg.sender, _landBuyer, _landID);\r\n\r\n                return true;\r\n            }\r\n        }\r\n\r\n        //if we still did not return, return false\r\n        return false;\r\n    }\r\n\r\n\r\n    //3. THIRD OPERATION\r\n    //get land details of an account\r\n    function getLand(address _landHolder, uint _index) public returns (string, uint, address,uint)\r\n    {\r\n        return (__ownedLands[_landHolder][_index].location,\r\n                __ownedLands[_landHolder][_index].cost,\r\n                __ownedLands[_landHolder][_index].ownerAddress,\r\n                __ownedLands[_landHolder][_index].landID);\r\n\r\n    }\r\n\r\n    //4. GET TOTAL NO OF LANDS OWNED BY AN ACCOUNT AS NO WAY TO RETURN STRUCT ARRAYS\r\n    function getNoOfLands(address _landHolder) public returns (uint)\r\n    {\r\n        return __ownedLands[_landHolder].length;\r\n    }\r\n\r\n\r\n}\r\n",
  "sourcePath": "D:\\myreactapp2\\backend\\contracts\\LandContract.sol",
  "compiler": {
    "name": "solc",
    "version": "0.4.24+commit.e67f0147.Emscripten.clang"
  },
  "schemaVersion": "2.0.1",
  "updatedAt": "2018-10-26T15:23:53.516Z"
}